:020000040800F2
:10000000480700209901000867190008CB1700086D
:100010006519000881070008FD1C000800000000A9
:10002000000000000000000000000000491A000865
:10003000A908000800000000691900084B1A000810
:10004000B3010008B3010008B3010008B3010008C0
:10005000B3010008B3010008B3010008B3010008B0
:10006000B3010008B3010008B3010008B3010008A0
:10007000B3010008B3010008910800089D080008BA
:10008000B3010008B3010008B3010008B301000880
:10009000B3010008B3010008B3010008B301000870
:1000A000B3010008B3010008B3010008B301000860
:1000B000B3010008B301000800000000B30100080C
:1000C000B30100080000000000000000B3010008B8
:1000D00000000000F11C0008B3010008000000004F
:1000E000B3010008B3010008B301000800F002F8F2
:1000F00000F043F80AA090E8000C82448344AAF17F
:100100000107DA4501D100F038F8AFF2090EBAE87C
:100110000F0013F0010F18BFFB1A43F0010318473B
:10012000501E0000701E0000103A24BF78C878C12D
:10013000FAD8520724BF30C830C144BF04680C60ED
:10014000704700000023002400250026103A28BF35
:1001500078C1FBD8520728BF30C148BF0B60704739
:10016000642900F0B180002070471FB59DE80300AE
:1001700000F08AF91FBD10B510BD00F07FFA1146DE
:10018000FFF7F3FF01F036FE00F09DFA03B4FFF72E
:10019000F2FF03BC00F0CEFA094880470948004747
:1001A000FEE7FEE7FEE7FEE7FEE7FEE7FEE7FEE727
:1001B000FEE7FEE704480549054A064B7047000084
:1001C0009F1A0008ED0000084801002048070020A1
:1001D000480300204803002070B5064600F038F9B7
:1001E000056806F10B0020F00704B4429CBF002014
:1001F00070BD2B466A68BAB11068A04210D304F1F2
:10020000080188423CBF5068586007D351681019F4
:1002100041601168091B016058601460101D70BDB9
:1002200013465268002AE7D12146284600F018F903
:100230000028DED170BD00000FB41CB5074B06AA24
:100240007B4469460090059800F0D9F90020694682
:1002500000F0E8F91CBC5DF814FB0000E1030000AD
:100260002DE9F0410E460446002020622046E16858
:10027000884730B3252805D0D4E901219047206A6A
:10028000401CF2E7E168204600278847050018D0A7
:10029000A5F14100192802D820354FF400673246F5
:1002A000294620462760FFF75BFF40B1012804D0B4
:1002B000F61D26F007060836D8E7361DD6E728468D
:1002C000DAE7206ABDE8F0812DE9F0410646002416
:1002D00010687529314616A510D0AFF300800028AC
:1002E00002DA404213A507E031688A0701D512A55A
:1002F00002E0490704D511A5012401E0AFF3008015
:1003000000210A2206F1240709E0B0FBF2FCB0FB51
:10031000F2F302FB1C00303078541846491C0028C8
:10032000F3D123462A463046BDE8F04100F009B932
:10033000000000002D0000002B0000002000000045
:1003400010B5431C02E010F8011B71B18107FAD10E
:100350004FF0013202C88C1A8C4314EAC211F9D052
:10036000C01A0A0603D0C01E10BDC01A10BD0A0470
:1003700001D0801E10BD0902FCD0401E10BD421EDF
:1003800012F8013F002BFBD111F8013B002B02F8C2
:10039000013BF9D1704710B5203AC0F00B80B1E8AD
:1003A0001850203AA0E81850B1E81850A0E81850AA
:1003B000BFF4F5AF5FEA027C24BFB1E81850A0E8B3
:1003C000185044BF18C918C0BDE810405FEA827CCD
:1003D00024BF51F8043B40F8043B08BF7047D207E4
:1003E00028BF31F8023B48BF11F8012B28BF20F885
:1003F000023B48BF00F8012B70474FF0000200B5E8
:10040000134694469646203922BFA0E80C50A0E837
:100410000C50B1F12001BFF4F7AF090728BFA0E8E5
:100420000C5048BF0CC05DF804EB890028BF40F8B1
:10043000042B08BF704748BF20F8022B11F0804FF3
:1004400018BF00F8012B70477047704770470000D5
:1004500000487047F00000207047704770477047B1
:1004600038B504460A4600206946AFF300800028EC
:1004700008BF38BD02460099204600F0DDF8012093
:1004800038BD012000F0F2B8F8B5AFF300800546A2
:1004900000200C46102000BF0646A819A0420DD926
:1004A000324669460020AFF30080070008BF00F025
:1004B000DDF80098A04218BF0546C419FFF7C8FF31
:1004C00005600746F01D20F007004619284600F099
:1004D0000AF8B44208BFF8BDA21B31463868BDE82F
:1004E000F84000F0A9B800210160C0E90110704790
:1004F0001020704770B50446051FFFF7A9FF00687C
:10050000002C14BF446870BD002C18BFAC423CBF27
:1005100020466468F8D301680A18AA4218BF4560EB
:1005200003D12A6805461144016028684119A14297
:100530001CBF6C6070BD61686960216808442860F8
:1005400070BD2DE9F0470D4699469246044600F1EC
:1005500024080168880604D5E06921F010012160B3
:1005600000E00120A84201DD471B00E00027A1694F
:100570007A1902EB0900081AA0612078C00602D49B
:100580002046AFF30080002608E0D4E901211AF8E4
:1005900006009047206A401C761C20624E45F4DB22
:1005A0002078C0060AD52046AFF3008006E0D4E9E3
:1005B000012130209047206A401C2062381EA7F19C
:1005C0000107F4DC07E0D4E9012118F805009047A1
:1005D000206A401C2062281EA5F10105F3DC20469C
:1005E000AFF300802078000602D50220BDE8F08736
:1005F0000120FBE701694A1C02610878704700B5D9
:100600008FB0CDE901310021059105497944CDE94B
:10061000031011466846FFF723FE0FB000BD00002F
:10062000E5FFFFFF0A6802F8010B0A60704700004F
:1006300000487047E8000020034640688C460028C8
:1006400018BF88423CBF03464068F8D31868184476
:10065000884207D00CF1030020F00700001D411A6A
:10066000521A0146081D0A60FFF744BF10B500F09A
:1006700039F8BDE8104000F02FB870477546FFF715
:10068000D7FFAE4605006946534620F00700854671
:1006900018B020B5FFF78EFDBDE820404FF00006F2
:1006A0004FF000074FF000084FF0000B21F007015A
:1006B000AC46ACE8C009ACE8C009ACE8C009ACE89D
:1006C000C0098D46704710B50446AFF30080204640
:1006D000BDE81040FFF75ABD002801D000F02AB84D
:1006E0007047000010B5012805D0002103A000F0DC
:1006F00027F8012010BD09A1F8E70000534947522F
:10070000544D454D3A204F7574206F6620686561E1
:1007100070206D656D6F7279000000003A204865A9
:100720006170206D656D6F727920636F7272757084
:100730007465640001491820ABBEFEE72600020084
:1007400070B505460C460A2000E06D1C00F011F85B
:1007500035B128780028F8D102E0641C00F009F8CF
:1007600014B120780028F8D1BDE870400A20AFF31A
:10077000008008B569468DF800000320ABBE08BDB7
:10078000FEE700002DE9F04700F036F8002000F009
:1007900063F8DFF85C80DFF85C900025002601211B
:1007A0004746404600F0BCFA0028F8D0282001F067
:1007B00013FB0121B846384600F0B2FA01280ED0EA
:1007C00000276006761C47EA1064082EE7DB09F86C
:1007D00005406D1C052DE1DB0648BDE8F0870127CB
:1007E0000121404600F09CFA0028F9D1E9E7000019
:1007F000001001400000002010B5012000F02CF88E
:10080000144C01221146204600F08FFA00220121EB
:10081000204600F08AFA1E2000F090F901221146CD
:10082000204600F082FA002000F016F80121204650
:1008300000F076FA0028F9D10121204600F070FA84
:100840000028F9D00121204600F06AFA0028F9D1E9
:1008500010BD00000010014000B585B000210291DC
:1008600009498A6942F010028A61896901F0100120
:1008700004910121CDE9001002200390694603484C
:1008800000F06EF905B000BD0010024000100140FC
:10089000014800F07BB80000A4000020014800F0EF
:1008A00075B8000060000020704772B6FEE710B512
:1008B00090F821100022022905D00421816380F8DC
:1008C0002020012010BD01680B6823F00E030B608F
:1008D00001680B6823F001030B6090F84030C46B93
:1008E000012101FA03F3636080F8211080F82020D1
:1008F000104610BD10B590F821100024022903D035
:100900000421816301243DE001680A6822F00E029F
:100910000A6001680A6822F001020A601A4A016846
:10092000914201D1012121E0174A1432914201D1B3
:1009300010211BE0144A2832914201D1891515E09B
:10094000114A3C32914201D189140FE00E4A5032D3
:10095000914202D14FF4803108E00B4A6432914257
:1009600002D14FF4801101E04FF08071064A083A3D
:100970005160012180F82110002180F82010416B86
:1009800001B18847204610BD080002402DE9F05F04
:10099000C16B0C6801680B68D0F840C0042202FAF1
:1009A0000CF2494DDFF824A1494E4A4FDFF828B137
:1009B000DFF828E122422CD05A072AD50A6892068D
:1009C00003D40A6822F004020A600168A94201D136
:1009D000042219E0514501D1402215E0B14202D173
:1009E0004FF4806210E0B94202D14FF480420BE034
:1009F000594502D14FF4802206E0714502D14FF4EF
:100A0000800201E04FF080622F4908394A60C16AD4
:100A10003BE04FF0020808FA0CF818EA040F4FF018
:100A200000094FF0010235D05FEA837832D50B68B8
:100A30009B0605D40B6823F00A030B6080F8212085
:100A40000168A94201D1022219E0514501D12022B9
:100A500015E0B14202D14FF4007210E0B94202D168
:100A60004FF400520BE0594502D14FF4003206E03A
:100A7000714502D14FF4001201E04FF000721249AB
:100A800008394A6080F82090816A00291AD0BDE8B0
:100A9000F05F0847082505FA0CF5254212D01B0720
:100AA00010D50B6823F00E030B6090F84010C36B59
:100AB00002FA01F15960826380F8212080F82090C9
:100AC000016BE2E7BDE8F09F080002401C00024015
:100AD0003000024044000240580002406C000240D6
:100AE00030B528B308C8134914221944B1FBF2F1F8
:100AF0008900C16310498163022141771A6843F676
:100B0000F0718A43D0E900142143D0E902452C4317
:100B100021430469214344692143846921431143EA
:100B2000196000214163012242770177084630BDF8
:100B3000012030BDF8FFFDBF0000024070B5044643
:100B400000F0F8F80546601C02D004480078044420
:100B500000F0F0F8401BA042FAD370BD080000205E
:100B60002DE9F84FDFF89C910024A9F1040B2346EE
:100B70000F2709F1040AABF1040EBBE00125A540E3
:100B80002A40AA4276D1DFF880C14E68A6EB0C0855
:100B900066452BD00DDC032E34D005DC36B3012E98
:100BA00019D0022E2FD11BE0112E16D0122E2AD1D1
:100BB00019E0B8F5881F19D006DCB8F5803F15D0CC
:100BC000B8F5801F1FD111E0B8F5001F0ED0B8F5A1
:100BD000041F18D10AE0CB6815E0CB681B1D12E09A
:100BE000CB6808330FE0CB680C330CE08B682BB17B
:100BF000012B4FF0080303D0456104E0042302E019
:100C0000056100E00023FF2A01D8064601E000F15B
:100C100004064FEA840501D9A5F12005D6F8008025
:100C200007FA05FC28EA0C0803FA05F548EA050866
:100C3000C6F800804D68ED005BD5344DAE6946F0D6
:100C40000106AE61AD6924F0030605F001050095CB
:100C50002F4D06EB050CDCF80850A607360F07FAF7
:100C600006F825EA0805DFF8AC80404503D14FF0CF
:100C7000000810E03DE0DFF8A080404502D14FF0D1
:100C8000010808E0DFF89480404502D14FF00208E7
:100C900001E04FF0030808FA06F848EA0508CCF826
:100CA00008804D68D9F80060ED024D4601D5164325
:100CB00000E096432E604D68DAF80060AD025546BC
:100CC00001D5164300E096432E604D68DBF80060C6
:100CD000AD035D4601D5164300E096432E604D6896
:100CE000DEF80060ED03754601D5164300E096433B
:100CF0002E60641C0A6832FA04F57FF43FAFBDE849
:100D0000F88F00000804014000001110001002409C
:100D10000000014000080140000C014000100140AB
:100D20008068084000D0012070470AB10161704717
:100D30000904FBE7014880687047000008000020B4
:100D400002488168027811448160704708000020E1
:100D5000074810B5016841F010010160032000F060
:100D600075F80F2000F006F800F024F8002010BD00
:100D70000020024070B50D4D04464FF47A7128787A
:100D8000B1FBF0F00A490968B1FBF0F000F0E2FABB
:100D900048B9102C07D200222146501E00F036F828
:100DA00000206C6070BD012070BD000008000020B4
:100DB000140000200C4808B5816941F001018161EF
:100DC000816901F001010091C16941F08051C16167
:100DD000C06900F0805000900448416821F0E06153
:100DE00041F00071416008BD001002400000014068
:100DF000002809DB00F01F0201219140400980001A
:100E000000F1E020C0F8001170470000F0B40E4B74
:100E10001B680C46C3F30223C3F10705042D00D958
:100E20000425191D072901D2002300E0DB1E01263D
:100E300006FA05F1491E214099409E40761E164053
:100E40003143F0BC00F0B8BF0CED00E0064900F003
:100E5000070208684FF6FF03184040EA0220034AE1
:100E600010430860704700000CED00E00000FA0538
:100E70002DE9F0470F46050061D0434E306800F081
:100E80000700B84209D2306820F0070038433060CC
:100E9000306800F00700B84251D128683B4C810708
:100EA00012D5400703D5606840F4E06060602878A0
:100EB000000703D5606840F4605060606068A9680E
:100EC00020F0F000084360602878C00728D06868E8
:100ED000012810D02168022810D0890700292EDAB5
:100EE000616821F0030101436160FFF723FF804641
:100EF00041F288390DE021688903EFE78901EDE7C8
:100F0000FFF718FFA0EB0801494502D90320BDE80F
:100F1000F0876068696800F00C00B0EB810FEFD1DA
:100F2000306800F00700B8420BD9306820F00700A5
:100F300038433060306800F00700B84201D001202B
:100F4000E5E72878400705D56068E96820F4E060A7
:100F5000084360602878000706D56068296920F496
:100F6000605040EAC100606000F03EF86168084AE5
:100F7000C1F30311515CC840064908600648006887
:100F8000FFF7F8FE0020C2E70020024000100240F8
:100F9000561F0008140000200C00002001480068C3
:100FA00070470000140000200448054900684968A3
:100FB000044AC1F30221515CC8407047140000206C
:100FC00000100240661F000804480549006849688F
:100FD000044AC1F3C221515CC8407047140000208C
:100FE00000100240661F00080E4A51680E4801F0CA
:100FF0000C03042B11D0082B0FD10C48C1F38343F1
:10100000C903C05C0AD55168084AC1F34041921E29
:10101000515C054A5043B0FBF1F070470449484326
:10102000704700000010024000127A00461F0008BE
:1010300000093D002DE9F84F040070D02078C04D24
:10104000C00749D06868C0F38100012807D06868EC
:10105000C0F38100022809D16868C00306D528685A
:10106000800339D560680028E7D035E06068B0F5C6
:10107000803F0BD010B1B0F5A02F11D0286820F41C
:1010800080302860286820F4802002E0286840F43E
:1010900080302860606890B1FFF74CFE06460AE099
:1010A000286840F480202860F0E700BFFFF742FE88
:1010B000801B642873D828688003F7D50CE0FFF7FD
:1010C00039FE064605E000BFFFF734FE801B6428AA
:1010D000F0D828688003F7D420789A4E80074FF024
:1010E00001094FF0000839D5686810F00C0F07D0DF
:1010F0006868C0F38100022809D16868C00306D47B
:101100002868800714D52069012808D110E02069DB
:10111000B0B1C6F80090FFF70DFE074605E00AE102
:10112000FFF708FEC01B0228C4D828688007F7D53F
:101130002868616920F0F80040EAC10028600DE0ED
:10114000C6F80080FFF7F6FD074604E0FFF7F2FD62
:10115000C01B022823D828688007F7D4207800070E
:101160002CD57948A169D9B1C0F80090FFF7E2FD0C
:10117000074604E0FFF7DEFDC01B02280FD8686AAF
:101180008007F7D571484FF4FA510068B0FBF1F0D1
:10119000009000BF0098411E0091FAD20EE080E05E
:1011A000C0F80080FFF7C6FD074604E0FFF7C2FD68
:1011B000C01B022875D8686A8007F7D420784007DA
:1011C00060D5E8690027C00008D4E86940F0805085
:1011D000E861E869012700F0805000905C480168F0
:1011E000C90513D40168834641F480710160FFF79B
:1011F000A1FD824606E000BFFFF79CFDA0EB0A00C0
:1012000064284ED8DBF80000C005F5D5E068012859
:101210000AD008B1052813D0286A20F001002862FE
:10122000286A20F0040002E0286A40F001002862E9
:10123000E06841F2883B98B1FFF77CFD82460BE005
:10124000286A40F004002862EEE700BFFFF772FD55
:10125000A0EB0A0159455AD8286A8007F6D50CE058
:10126000FFF768FD824605E0FFF764FDA0EB0A0189
:1012700059454CD8286A8007F6D41FB1E86920F098
:101280008050E861E06988B36968C1F3810102298F
:1012900044D00228C6F8608004D0FFF74BFD044616
:1012A00038E034E0FFF746FD074604E0FFF742FD73
:1012B000C01B02282BD828688001F7D4206AB0F51B
:1012C000803F05D16868A16820F400300843686059
:1012D000D4E908010843696821F47411084368607F
:1012E000C6F86090FFF726FD044606E025E000BF43
:1012F000FFF720FD001B022809D828688001F7D5D8
:101300001BE000BFFFF716FD001B022802D90320D7
:10131000BDE8F88F28688001F4D40EE00128F7D0EA
:101320006868226A00F48031914204D1616A00F455
:101330007010884201D00120EAE70020E8E70000B1
:10134000001002400000424280044242140000208B
:101350000070004010B5401EB0F1807F01D3012025
:1013600010BD4FF0E02460610F21601700F024FDF4
:101370000020A06107202061002010BD7047704749
:10138000F8B5016804460868CA684B6910F00F0F89
:101390004FF0000559D003F0010602F4907737436F
:1013A00065D0C10705D0D10503D5616C41F00101BD
:1013B0006164410705D5D90703D0616C41F0020192
:1013C0006164810705D5D90703D0616C41F0040140
:1013D0006164010707D502F02001314303D0616C3D
:1013E00041F008016164616C00293AD0800604D59F
:1013F000900602D5204600F082FB20684069616CAF
:10140000C0F38010090700D460B3204600F050FB01
:1014100020684069400621D52068143050E8001F3C
:1014200021F0400140E80012002AF5D1E06BA8B19C
:101430006D494163E06BFFF75DFA002811D0E06B66
:10144000416B01B0BDE8F040084783060FD5930615
:101450000DD52046BDE8F84000F051BB2046FFF70F
:101460008EFFF8BD2046FFF78AFF6564F8BD266B46
:101470002023012E7CD1C6067AD5D60678D50868F9
:101480004868009048694FF00206400640D5E16B7D
:10149000086840680004000CE8D0A28D8242E5D9BB
:1014A000E085886920282DD020680C3050E8001F86
:1014B00021F4807140E80012002AF5D12068143030
:1014C00050E8001F21F0010140E80012002AF5D188
:1014D0002068143050E8001F21F0400140E800125D
:1014E000002AF5D184F84230256320680C3050E89A
:1014F000001F21F0100140E80012002AF5D1E06B36
:10150000FFF7D5F96663A08DE18D401A81B22AE01C
:10151000A08DE18D401A81B2E08D0028A6D000296F
:10152000A4D022680C3252E8000F20F4907042E8F8
:101530000007002FF5D12068143050E8002F22F06A
:10154000010240E80027002FF5D184F842302563DE
:1015500020680C3050E8002F22F0100240E80023F1
:10156000002BF5D166632046FFF708FFF8BDFFE7C3
:1015700005062BD5150629D594F841002128F5D16B
:10158000A068B0F5805F01D12069B0B1206A411C2C
:101590002162216800784860E08C401E0004000C45
:1015A000E084E3D12068C16821F08001C160206837
:1015B000C16841F04001C160D8E7206A0088C0F3EB
:1015C00008004860206A801C2062E5E74006CDD50F
:1015D0005006CBD5CA68204622F04002CA6084F883
:1015E000413000F0F1F8C1E7A11A000870B504001D
:1015F00004D094F84100002510B106E0012070BD30
:1016000084F84050204600F023F8242084F841005C
:101610002068C16821F40051C160204600F0D0FA72
:101620002068016921F4904101612068416921F03D
:101630002A0141612068C16841F40051C1606564BC
:10164000202084F8410084F842006563002070BDCA
:10165000F0B585B0002406460094019402940394EA
:1016600000682D49884254D12C48816941F4804159
:101670008161816901F480410491816941F0040133
:1016800081618069264D00F0040004904FF40070E1
:101690000090022001900320039069462846FFF73E
:1016A0005FFA2815CDE90004694628460294FFF741
:1016B00057FA1D4D1B488027C5E90004C5E90247BC
:1016C0002C616C61AC612846EC61FFF709FA08B146
:1016D000FFF7EBF8F5636E62134D1248443514388A
:1016E00001C5102091C5104845F8104944306C617F
:1016F000AC61EC61FFF7F4F908B1FFF7D6F8B56318
:101700000022114625206E62FFF780FB2520FFF79F
:101710006FFB05B0F0BD0000003801400010024032
:1017200000080140580002406000002070472DE989
:10173000F843044690F841001F4616460D462028FF
:1017400002D00220BDE8F8837DB176B1002060644C
:10175000212084F84100FFF7EDFAA6848046E68454
:10176000A068B0F5805F02D003E00120EAE72069BD
:1017700010B12E4600250EE000260CE08021204608
:1017800000F07AFAA0B9AEB116F8010B21684860F2
:10179000E08C401EE084E08C43464FF0000200974E
:1017A0000028EBD14FF04001204600F065FA30B13F
:1017B0000320C7E735F8020BC0F30800E6E7202056
:1017C00084F841000020BDE77047FEE72DE9104096
:1017D00000F012F90006FBD40F20FFF7AFF9382014
:1017E00000F08EFA0520FFF7A9F9382000F088FAFA
:1017F000082000F085FA012000F082FA062000F0AF
:101800007FFABDE810400C2000F07ABA70B514469B
:101810000D46064600F0F0F80006FBD4012E06D077
:10182000022E0FD1C035E8B200F06AFA0FE0803521
:10183000E8B200F065FA02E000F090FA641C20784B
:101840000028F9D170BD00BF00F088FA641C207830
:101850000028F9D170BD00000D4808B5416941F07C
:10186000010141614069002200F001000090114631
:101870000E20FFF7CBFA0E20FFF7BAFA002211462E
:101880000F20FFF7C3FABDE808400F20FFF7B0BAFA
:10189000001002402DE9F04186B000242048009459
:1018A000019402940394816941F02001816181696E
:1018B00001F020010491816941F004018161816995
:1018C00001F004010491816941F00801816180699E
:1018D000144F00F00800049001220E213846FFF753
:1018E00024FADFF844800122FF214046FFF71DFA69
:1018F0000E2001250226CDE90005CDE90246694604
:101900003846FFF72DF9FF20CDE90005CDE9024665
:1019100069464046FFF724F906B0BDE8F0810000B3
:101920000010024000080140000C01400C4810B5B6
:101930000A4901604FF416514160002181600C2278
:10194000C160C0E904128161C161FFF74FFE002848
:1019500003D0BDE81040FEF7A8BF10BD003801401D
:1019600018000020FEE7FEE77047000070B5214D2B
:10197000002401212846FFF7D3F9012800D10124D2
:1019800002212846FFF7CCF9012801D144F00204D6
:1019900004212846FFF7C4F9012801D144F00404CA
:1019A00008212846FFF7BCF9012801D144F00804BA
:1019B00010212846FFF7B4F9012801D144F01004A2
:1019C00020212846FFF7ACF9012801D144F020047A
:1019D00040212846FFF7A4F9012801D144F0400432
:1019E00080212846FFF79CF9012801D144F08004AA
:1019F000204670BD000C014070B5124D002202213E
:101A00002846FFF792F9012204212846FFF78DF9B5
:101A1000002208212846FFF788F90120FFF78EF8F9
:101A2000012208212846FFF780F90120FFF786F8F8
:101A3000FFF79CFF0446002208212846FFF775F9AE
:101A4000204670BD000801407047FFF779B910B516
:101A500090B028216846FEF7D0FC14210AA8FEF7B2
:101A6000CCFC02200090012004901020002405905E
:101A700007946846FFF7DEFA08B172B6FEE70F205A
:101A8000CDE90A040C940D9400210AA80E94FFF7E6
:101A9000EFF9002801D072B6FEE710B010BD704714
:101AA00010B5406A0021C185C184FFF768FC10BDF4
:101AB00001680C3151E8002F22F4907241E80023B4
:101AC000002BF5D10168143151E8002F22F00102FA
:101AD00041E80023002BF5D1016B012909D10168F0
:101AE0000C3151E8002F22F0100241E80023002BB6
:101AF000F5D1202180F8421000210163704708B51C
:101B000090F84210222901D0022008BD82684FF4CB
:101B100080539A4201D1016921B1816A9A421BD056
:101B20004AB10AE00268816A5268C2F308020A8078
:101B3000816A891C08E0026972B10268526802F089
:101B40007F020A70816A491C8162C18D491E0904A5
:101B5000090CC18503D01BE002685268F1E70168F7
:101B6000CA6822F02002CA600168CA6822F4807242
:101B7000CA6001684A6922F001024A61202180F8A6
:101B8000421000214163026B012A03D0FFF7CEFD12
:101B9000002008BD016301680C3151E8002F22F0DC
:101BA000100241E80023002BF5D101680A68D20633
:101BB00002D50A6849680091818DFFF7DFFBE7E7EE
:101BC00070B5044600680169E26821F44051114390
:101BD00001612169A0680843616908432168CA68F6
:101BE00041F20C639A430243CA6020684169A269CA
:101BF00021F44071114341611E492068884202D19D
:101C0000FFF7E2F901E0FFF7CFF900EBC00101EBCC
:101C10000012606864218000B2FBF0F3B3FBF1F3C3
:101C20006FF018067343B2FBF0F5B2FBF0F605EB6C
:101C30008305322303EB0515B5FBF1F5B6FBF1F691
:101C400005F0F00505EB0615B2FBF0F6B2FBF0F07F
:101C5000B0FBF1F06FF01802504306EB800003EB8D
:101C60000010B0FBF1F0216800F00F0028448860FC
:101C700070BD0000003801402DE9F041984617463C
:101C80000E460446069D27E0681C25D02DB1FFF7BF
:101C900051F8A0EB0800A8421ED920680C3050E88B
:101CA000001F21F4D07140E80012002AF5D120680D
:101CB000143050E8001F21F0010140E80012002A12
:101CC000F5D1202084F8410084F84200002084F8F7
:101CD00040000320BDE8F0812068006836EA00007B
:101CE00004D00020B842CFD00020F3E70120F9E76C
:101CF0000148FFF745BB000018000020FEE7000088
:101D000070B50446FFF778FE0006FBD4114D0022A3
:101D100002212846FFF709F8002204212846FFF790
:101D200004F8002208212846FEF7FFFF0A48046055
:101D30000520FEF703FF012208212846FEF7F5FFE4
:101D40000520FEF7FBFE2846BDE870400022082172
:101D5000FEF7EBBF000801400C0C014070B50446D3
:101D6000FFF74AFE0006FBD4114D0122022128464E
:101D7000FEF7DBFF002204212846FEF7D6FF0022F3
:101D800008212846FEF7D1FF0A4804600520FEF727
:101D9000D5FE012208212846FEF7C7FF0520FEF7E1
:101DA000CDFE2846BDE8704000220821FEF7BDBFE9
:101DB000000801400C0C01400907090E002804DB53
:101DC00000F1E02080F80014704700F00F0000F1EF
:101DD000E02080F8141D704710B50446FFF7DEF8C8
:101DE0000349B0FBF1F16143491EFDD210BD000073
:101DF00000093D009EB00520FEF7EEF9FEF7A8FFB2
:101E0000FFF725FEFFF746FDFFF726FDFFF78EFDE6
:101E1000FFF7DCFC4FF416764FF0FF3564222349C0
:101E20006846FEF7B8FAFEF7ADFC04464378027840
:101E30001FA119A8FEF700FA19A96846FEF79FFA34
:101E40001DA16846FEF79BFA19AA00210120FFF7A1
:101E5000DDFC1AA16846FEF792FAE378A2781AA18F
:101E600019A8FEF7E9F919AA00210220FFF7CEFC14
:101E700034463046FEF762FE19A96846FEF77FFA3F
:101E800013A16846FEF77BFA13A16846FEF777FABE
:101E90006846FEF755FA82B22B4669460F48FFF7AF
:101EA00046FC2046FEF74AFEB8E70000E01E0008A8
:101EB000483A25642E256400250000002020CEC26B
:101EC000B6C8CEAA3A200000543A25642E256400F4
:101ED000C9E3CACFB6C800000D0A000018000020F0
:101EE000CAAAB6C8CEAA3A2000000000000000002E
:101EF00000000000000000000000000000000000E2
:101F000000000000000000000000000000000000D1
:101F100000000000000000000000000000000000C1
:101F200000000000000000000000000000000000B1
:101F300000000000000000000000000000000000A1
:101F400000000000010202030405060708090A0B4D
:101F50000C0D0E0F10100000000000000000010228
:101F60000304060708090000000001020304000042
:101F7000901F000800000020180000002801000841
:101F8000A81F0008180000203007000044010008C6
:101F90000000000000000000010000001000000030
:081FA000000000000024F40021
:04000005080000ED02
:00000001FF
